{
  "_format": "hh-sol-artifact-1",
  "contractName": "BharatVote",
  "sourceName": "contracts/BharatVote.sol",
  "abi": [
    {
      "inputs": [
        {
          "internalType": "string",
          "name": "_electionName",
          "type": "string"
        },
        {
          "internalType": "string[]",
          "name": "_candidateNames",
          "type": "string[]"
        }
      ],
      "stateMutability": "nonpayable",
      "type": "constructor"
    },
    {
      "inputs": [
        {
          "internalType": "uint256",
          "name": "",
          "type": "uint256"
        }
      ],
      "name": "candidates",
      "outputs": [
        {
          "internalType": "string",
          "name": "name",
          "type": "string"
        },
        {
          "internalType": "uint256",
          "name": "voteCount",
          "type": "uint256"
        }
      ],
      "stateMutability": "view",
      "type": "function"
    },
    {
      "inputs": [],
      "name": "electionName",
      "outputs": [
        {
          "internalType": "string",
          "name": "",
          "type": "string"
        }
      ],
      "stateMutability": "view",
      "type": "function"
    },
    {
      "inputs": [],
      "name": "getAllCandidates",
      "outputs": [
        {
          "components": [
            {
              "internalType": "string",
              "name": "name",
              "type": "string"
            },
            {
              "internalType": "uint256",
              "name": "voteCount",
              "type": "uint256"
            }
          ],
          "internalType": "struct BharatVote.Candidate[]",
          "name": "",
          "type": "tuple[]"
        }
      ],
      "stateMutability": "view",
      "type": "function"
    },
    {
      "inputs": [
        {
          "internalType": "uint256",
          "name": "_candidateIndex",
          "type": "uint256"
        }
      ],
      "name": "vote",
      "outputs": [],
      "stateMutability": "nonpayable",
      "type": "function"
    },
    {
      "inputs": [
        {
          "internalType": "address",
          "name": "",
          "type": "address"
        }
      ],
      "name": "voters",
      "outputs": [
        {
          "internalType": "bool",
          "name": "",
          "type": "bool"
        }
      ],
      "stateMutability": "view",
      "type": "function"
    }
  ],
  "bytecode": "0x60806040523480156200001157600080fd5b5060405162000a4b38038062000a4b8339810160408190526200003491620001a0565b600062000042838262000328565b5060005b8151811015620000c15760016040518060400160405280848481518110620000725762000072620003f4565b60209081029190910181015182526000918101829052835460018101855593825290208151919260020201908190620000ac908262000328565b50602091909101516001918201550162000046565b5050506200040a565b634e487b7160e01b600052604160045260246000fd5b604051601f8201601f191681016001600160401b03811182821017156200010b576200010b620000ca565b604052919050565b600082601f8301126200012557600080fd5b81516001600160401b03811115620001415762000141620000ca565b602062000157601f8301601f19168201620000e0565b82815285828487010111156200016c57600080fd5b60005b838110156200018c5785810183015182820184015282016200016f565b506000928101909101919091529392505050565b60008060408385031215620001b457600080fd5b82516001600160401b0380821115620001cc57600080fd5b620001da8683870162000113565b9350602091508185015181811115620001f257600080fd5b8501601f810187136200020457600080fd5b805182811115620002195762000219620000ca565b8060051b6200022a858201620000e0565b918252828101850191858101908a8411156200024557600080fd5b86850192505b838310156200028657825186811115620002655760008081fd5b620002758c898389010162000113565b83525091860191908601906200024b565b809750505050505050509250929050565b600181811c90821680620002ac57607f821691505b602082108103620002cd57634e487b7160e01b600052602260045260246000fd5b50919050565b601f82111562000323576000816000526020600020601f850160051c81016020861015620002fe5750805b601f850160051c820191505b818110156200031f578281556001016200030a565b5050505b505050565b81516001600160401b03811115620003445762000344620000ca565b6200035c8162000355845462000297565b84620002d3565b602080601f8311600181146200039457600084156200037b5750858301515b600019600386901b1c1916600185901b1785556200031f565b600085815260208120601f198616915b82811015620003c557888601518255948401946001909101908401620003a4565b5085821015620003e45787850151600019600388901b60f8161c191681555b5050505050600190811b01905550565b634e487b7160e01b600052603260045260246000fd5b610631806200041a6000396000f3fe608060405234801561001057600080fd5b50600436106100575760003560e01c80630121b93f1461005c5780632e6997fe146100715780633477ee2e1461008f57806385e8e7a7146100b0578063a3ec138d146100c5575b600080fd5b61006f61006a366004610448565b6100f8565b005b610079610203565b60405161008691906104a7565b60405180910390f35b6100a261009d366004610448565b6102fe565b60405161008692919061051f565b6100b86103ba565b6040516100869190610541565b6100e86100d336600461055b565b60026020526000908152604090205460ff1681565b6040519015158152602001610086565b3360009081526002602052604090205460ff161561015d5760405162461bcd60e51b815260206004820152601760248201527f596f75206861766520616c726561647920766f7465642e00000000000000000060448201526064015b60405180910390fd5b60015481106101ae5760405162461bcd60e51b815260206004820152601860248201527f496e76616c69642063616e64696461746520696e6465782e00000000000000006044820152606401610154565b336000908152600260205260409020805460ff191660019081179091558054829081106101dd576101dd610584565b6000918252602082206001600290920201018054916101fb8361059a565b919050555050565b60606001805480602002602001604051908101604052809291908181526020016000905b828210156102f5578382906000526020600020906002020160405180604001604052908160008201805461025a906105c1565b80601f0160208091040260200160405190810160405280929190818152602001828054610286906105c1565b80156102d35780601f106102a8576101008083540402835291602001916102d3565b820191906000526020600020905b8154815290600101906020018083116102b657829003601f168201915b5050505050815260200160018201548152505081526020019060010190610227565b50505050905090565b6001818154811061030e57600080fd5b9060005260206000209060020201600091509050806000018054610331906105c1565b80601f016020809104026020016040519081016040528092919081815260200182805461035d906105c1565b80156103aa5780601f1061037f576101008083540402835291602001916103aa565b820191906000526020600020905b81548152906001019060200180831161038d57829003601f168201915b5050505050908060010154905082565b600080546103c7906105c1565b80601f01602080910402602001604051908101604052809291908181526020018280546103f3906105c1565b80156104405780601f1061041557610100808354040283529160200191610440565b820191906000526020600020905b81548152906001019060200180831161042357829003601f168201915b505050505081565b60006020828403121561045a57600080fd5b5035919050565b6000815180845260005b818110156104875760208185018101518683018201520161046b565b506000602082860101526020601f19601f83011685010191505092915050565b600060208083018184528085518083526040925060408601915060408160051b87010184880160005b8381101561051157888303603f19018552815180518785526104f488860182610461565b9189015194890194909452948701949250908601906001016104d0565b509098975050505050505050565b6040815260006105326040830185610461565b90508260208301529392505050565b6020815260006105546020830184610461565b9392505050565b60006020828403121561056d57600080fd5b81356001600160a01b038116811461055457600080fd5b634e487b7160e01b600052603260045260246000fd5b6000600182016105ba57634e487b7160e01b600052601160045260246000fd5b5060010190565b600181811c908216806105d557607f821691505b6020821081036105f557634e487b7160e01b600052602260045260246000fd5b5091905056fea26469706673582212203b14a5e63810204c45df1b1abf983d962b6fa116aae6c55ab224e7f8a463788d64736f6c63430008180033",
  "linkReferences": {},
  "deployedLinkReferences": {}
}